{
  "abi": [
    {
      "inputs": [
        {
          "internalType": "string",
          "name": "_name",
          "type": "string"
        },
        {
          "internalType": "string",
          "name": "_symbol",
          "type": "string"
        },
        {
          "internalType": "bytes32",
          "name": "_merkleroot",
          "type": "bytes32"
        },
        {
          "internalType": "bool",
          "name": "_publicMint",
          "type": "bool"
        },
        {
          "internalType": "bool",
          "name": "_whitelistMint",
          "type": "bool"
        }
      ],
      "stateMutability": "nonpayable",
      "type": "constructor"
    },
    {
      "anonymous": false,
      "inputs": [
        {
          "indexed": true,
          "internalType": "address",
          "name": "owner",
          "type": "address"
        },
        {
          "indexed": true,
          "internalType": "address",
          "name": "approved",
          "type": "address"
        },
        {
          "indexed": true,
          "internalType": "uint256",
          "name": "tokenId",
          "type": "uint256"
        }
      ],
      "name": "Approval",
      "type": "event"
    },
    {
      "anonymous": false,
      "inputs": [
        {
          "indexed": true,
          "internalType": "address",
          "name": "owner",
          "type": "address"
        },
        {
          "indexed": true,
          "internalType": "address",
          "name": "operator",
          "type": "address"
        },
        {
          "indexed": false,
          "internalType": "bool",
          "name": "approved",
          "type": "bool"
        }
      ],
      "name": "ApprovalForAll",
      "type": "event"
    },
    {
      "anonymous": false,
      "inputs": [
        {
          "indexed": true,
          "internalType": "address",
          "name": "previousOwner",
          "type": "address"
        },
        {
          "indexed": true,
          "internalType": "address",
          "name": "newOwner",
          "type": "address"
        }
      ],
      "name": "OwnershipTransferred",
      "type": "event"
    },
    {
      "anonymous": false,
      "inputs": [
        {
          "indexed": true,
          "internalType": "address",
          "name": "from",
          "type": "address"
        },
        {
          "indexed": true,
          "internalType": "address",
          "name": "to",
          "type": "address"
        },
        {
          "indexed": true,
          "internalType": "uint256",
          "name": "tokenId",
          "type": "uint256"
        }
      ],
      "name": "Transfer",
      "type": "event"
    },
    {
      "inputs": [
        {
          "internalType": "address",
          "name": "to",
          "type": "address"
        },
        {
          "internalType": "uint256",
          "name": "tokenId",
          "type": "uint256"
        }
      ],
      "name": "approve",
      "outputs": [],
      "stateMutability": "nonpayable",
      "type": "function"
    },
    {
      "inputs": [
        {
          "internalType": "address",
          "name": "owner",
          "type": "address"
        }
      ],
      "name": "balanceOf",
      "outputs": [
        {
          "internalType": "uint256",
          "name": "",
          "type": "uint256"
        }
      ],
      "stateMutability": "view",
      "type": "function"
    },
    {
      "inputs": [],
      "name": "baseURI",
      "outputs": [
        {
          "internalType": "string",
          "name": "",
          "type": "string"
        }
      ],
      "stateMutability": "view",
      "type": "function"
    },
    {
      "inputs": [],
      "name": "currentTokenId",
      "outputs": [
        {
          "internalType": "uint256",
          "name": "",
          "type": "uint256"
        }
      ],
      "stateMutability": "view",
      "type": "function"
    },
    {
      "inputs": [
        {
          "internalType": "uint256",
          "name": "tokenId",
          "type": "uint256"
        }
      ],
      "name": "getApproved",
      "outputs": [
        {
          "internalType": "address",
          "name": "",
          "type": "address"
        }
      ],
      "stateMutability": "view",
      "type": "function"
    },
    {
      "inputs": [
        {
          "internalType": "address",
          "name": "owner",
          "type": "address"
        },
        {
          "internalType": "address",
          "name": "operator",
          "type": "address"
        }
      ],
      "name": "isApprovedForAll",
      "outputs": [
        {
          "internalType": "bool",
          "name": "",
          "type": "bool"
        }
      ],
      "stateMutability": "view",
      "type": "function"
    },
    {
      "inputs": [],
      "name": "merkleRoot",
      "outputs": [
        {
          "internalType": "bytes32",
          "name": "",
          "type": "bytes32"
        }
      ],
      "stateMutability": "view",
      "type": "function"
    },
    {
      "inputs": [],
      "name": "mintPrice",
      "outputs": [
        {
          "internalType": "uint256",
          "name": "",
          "type": "uint256"
        }
      ],
      "stateMutability": "view",
      "type": "function"
    },
    {
      "inputs": [],
      "name": "name",
      "outputs": [
        {
          "internalType": "string",
          "name": "",
          "type": "string"
        }
      ],
      "stateMutability": "view",
      "type": "function"
    },
    {
      "inputs": [],
      "name": "owner",
      "outputs": [
        {
          "internalType": "address",
          "name": "",
          "type": "address"
        }
      ],
      "stateMutability": "view",
      "type": "function"
    },
    {
      "inputs": [
        {
          "internalType": "uint256",
          "name": "tokenId",
          "type": "uint256"
        }
      ],
      "name": "ownerOf",
      "outputs": [
        {
          "internalType": "address",
          "name": "",
          "type": "address"
        }
      ],
      "stateMutability": "view",
      "type": "function"
    },
    {
      "inputs": [
        {
          "internalType": "address",
          "name": "dest",
          "type": "address"
        }
      ],
      "name": "payments",
      "outputs": [
        {
          "internalType": "uint256",
          "name": "",
          "type": "uint256"
        }
      ],
      "stateMutability": "view",
      "type": "function"
    },
    {
      "inputs": [],
      "name": "preMintForTreasury",
      "outputs": [],
      "stateMutability": "nonpayable",
      "type": "function"
    },
    {
      "inputs": [],
      "name": "publicMint",
      "outputs": [
        {
          "internalType": "bool",
          "name": "",
          "type": "bool"
        }
      ],
      "stateMutability": "view",
      "type": "function"
    },
    {
      "inputs": [
        {
          "internalType": "address",
          "name": "recipient",
          "type": "address"
        }
      ],
      "name": "publicMintTo",
      "outputs": [
        {
          "internalType": "uint256",
          "name": "",
          "type": "uint256"
        }
      ],
      "stateMutability": "payable",
      "type": "function"
    },
    {
      "inputs": [],
      "name": "renounceOwnership",
      "outputs": [],
      "stateMutability": "nonpayable",
      "type": "function"
    },
    {
      "inputs": [
        {
          "internalType": "address",
          "name": "from",
          "type": "address"
        },
        {
          "internalType": "address",
          "name": "to",
          "type": "address"
        },
        {
          "internalType": "uint256",
          "name": "tokenId",
          "type": "uint256"
        }
      ],
      "name": "safeTransferFrom",
      "outputs": [],
      "stateMutability": "nonpayable",
      "type": "function"
    },
    {
      "inputs": [
        {
          "internalType": "address",
          "name": "from",
          "type": "address"
        },
        {
          "internalType": "address",
          "name": "to",
          "type": "address"
        },
        {
          "internalType": "uint256",
          "name": "tokenId",
          "type": "uint256"
        },
        {
          "internalType": "bytes",
          "name": "_data",
          "type": "bytes"
        }
      ],
      "name": "safeTransferFrom",
      "outputs": [],
      "stateMutability": "nonpayable",
      "type": "function"
    },
    {
      "inputs": [
        {
          "internalType": "address",
          "name": "operator",
          "type": "address"
        },
        {
          "internalType": "bool",
          "name": "approved",
          "type": "bool"
        }
      ],
      "name": "setApprovalForAll",
      "outputs": [],
      "stateMutability": "nonpayable",
      "type": "function"
    },
    {
      "inputs": [
        {
          "internalType": "string",
          "name": "_baseURI",
          "type": "string"
        }
      ],
      "name": "setBaseURI",
      "outputs": [],
      "stateMutability": "nonpayable",
      "type": "function"
    },
    {
      "inputs": [],
      "name": "startPublicMint",
      "outputs": [],
      "stateMutability": "nonpayable",
      "type": "function"
    },
    {
      "inputs": [],
      "name": "startWhitelistMint",
      "outputs": [],
      "stateMutability": "nonpayable",
      "type": "function"
    },
    {
      "inputs": [
        {
          "internalType": "bytes4",
          "name": "interfaceId",
          "type": "bytes4"
        }
      ],
      "name": "supportsInterface",
      "outputs": [
        {
          "internalType": "bool",
          "name": "",
          "type": "bool"
        }
      ],
      "stateMutability": "view",
      "type": "function"
    },
    {
      "inputs": [],
      "name": "symbol",
      "outputs": [
        {
          "internalType": "string",
          "name": "",
          "type": "string"
        }
      ],
      "stateMutability": "view",
      "type": "function"
    },
    {
      "inputs": [
        {
          "internalType": "uint256",
          "name": "tokenId",
          "type": "uint256"
        }
      ],
      "name": "tokenURI",
      "outputs": [
        {
          "internalType": "string",
          "name": "",
          "type": "string"
        }
      ],
      "stateMutability": "view",
      "type": "function"
    },
    {
      "inputs": [],
      "name": "totalSupply",
      "outputs": [
        {
          "internalType": "uint256",
          "name": "",
          "type": "uint256"
        }
      ],
      "stateMutability": "view",
      "type": "function"
    },
    {
      "inputs": [
        {
          "internalType": "address",
          "name": "from",
          "type": "address"
        },
        {
          "internalType": "address",
          "name": "to",
          "type": "address"
        },
        {
          "internalType": "uint256",
          "name": "tokenId",
          "type": "uint256"
        }
      ],
      "name": "transferFrom",
      "outputs": [],
      "stateMutability": "nonpayable",
      "type": "function"
    },
    {
      "inputs": [
        {
          "internalType": "address",
          "name": "newOwner",
          "type": "address"
        }
      ],
      "name": "transferOwnership",
      "outputs": [],
      "stateMutability": "nonpayable",
      "type": "function"
    },
    {
      "inputs": [
        {
          "internalType": "bytes32[]",
          "name": "proof",
          "type": "bytes32[]"
        }
      ],
      "name": "whiltistClaim",
      "outputs": [
        {
          "internalType": "uint256",
          "name": "",
          "type": "uint256"
        }
      ],
      "stateMutability": "nonpayable",
      "type": "function"
    },
    {
      "inputs": [],
      "name": "whitelistMint",
      "outputs": [
        {
          "internalType": "bool",
          "name": "",
          "type": "bool"
        }
      ],
      "stateMutability": "view",
      "type": "function"
    },
    {
      "inputs": [
        {
          "internalType": "address payable",
          "name": "payee",
          "type": "address"
        }
      ],
      "name": "withdrawPayments",
      "outputs": [],
      "stateMutability": "nonpayable",
      "type": "function"
    }
  ],
  "bytecode": {
    "object": "0x60c06040523480156200001157600080fd5b5060405162002b5338038062002b538339810160408190526200003491620002e5565b8451859085906200004d9060009060208501906200014e565b508051620000639060019060208401906200014e565b505050620000806200007a620000f860201b60201c565b620000fc565b6040516200008e90620001dd565b604051809103906000f080158015620000ab573d6000803e3d6000fd5b506001600160a01b031660805260a09290925260068054921515600160a81b0260ff60a81b19921515600160a01b029290921661ffff60a01b199093169290921717905550620003bb9050565b3390565b600680546001600160a01b038381166001600160a01b0319831681179093556040519116919082907f8be0079c531659141344cd1fd0a4f28419497f9722a3daafe3b4186f6b6457e090600090a35050565b8280546200015c906200037e565b90600052602060002090601f016020900481019282620001805760008555620001cb565b82601f106200019b57805160ff1916838001178555620001cb565b82800160010185558215620001cb579182015b82811115620001cb578251825591602001919060010190620001ae565b50620001d9929150620001eb565b5090565b6105f2806200256183390190565b5b80821115620001d95760008155600101620001ec565b634e487b7160e01b600052604160045260246000fd5b600082601f8301126200022a57600080fd5b81516001600160401b038082111562000247576200024762000202565b604051601f8301601f19908116603f0116810190828211818310171562000272576200027262000202565b816040528381526020925086838588010111156200028f57600080fd5b600091505b83821015620002b3578582018301518183018401529082019062000294565b83821115620002c55760008385830101525b9695505050505050565b80518015158114620002e057600080fd5b919050565b600080600080600060a08688031215620002fe57600080fd5b85516001600160401b03808211156200031657600080fd5b6200032489838a0162000218565b965060208801519150808211156200033b57600080fd5b506200034a8882890162000218565b945050604086015192506200036260608701620002cf565b91506200037260808701620002cf565b90509295509295909350565b600181811c908216806200039357607f821691505b60208210811415620003b557634e487b7160e01b600052602260045260246000fd5b50919050565b60805160a051612172620003ef6000396000818161031a0152610a850152600081816110b201526114d701526121726000f3fe6080604052600436106101d75760003560e01c80636c0360eb11610102578063a22cb46511610095578063d4eaf2e211610064578063d4eaf2e214610533578063e2982c2114610548578063e985e9c514610568578063f2fde38b146105b157600080fd5b8063a22cb465146104be578063b70196d7146104de578063b88d4fde146104f3578063c87b56dd1461051357600080fd5b8063804f43cd116100d1578063804f43cd146104575780638da5cb5b146104785780638ef535b91461049657806395d89b41146104a957600080fd5b80636c0360eb146103f857806370a082311461040d578063715018a61461042d57806376c64c621461044257600080fd5b806326092b831161017a57806342842e0e1161014957806342842e0e1461037c57806355f804b31461039c5780636352211e146103bc5780636817c76c146103dc57600080fd5b806326092b83146102e75780632eb4a7ab1461030857806331b3eb941461033c5780633cec12ad1461035c57600080fd5b8063081812fc116101b6578063081812fc14610257578063095ea7b31461028f57806318160ddd146102b157806323b872dd146102c757600080fd5b80629a9b7b146101dc57806301ffc9a71461020557806306fdde0314610235575b600080fd5b3480156101e857600080fd5b506101f260085481565b6040519081526020015b60405180910390f35b34801561021157600080fd5b50610225610220366004611b5d565b6105d1565b60405190151581526020016101fc565b34801561024157600080fd5b5061024a610623565b6040516101fc9190611bd2565b34801561026357600080fd5b50610277610272366004611be5565b6106b5565b6040516001600160a01b0390911681526020016101fc565b34801561029b57600080fd5b506102af6102aa366004611c13565b61074f565b005b3480156102bd57600080fd5b506101f261271081565b3480156102d357600080fd5b506102af6102e2366004611c3f565b610865565b3480156102f357600080fd5b5060065461022590600160a01b900460ff1681565b34801561031457600080fd5b506101f27f000000000000000000000000000000000000000000000000000000000000000081565b34801561034857600080fd5b506102af610357366004611c80565b610896565b34801561036857600080fd5b506101f2610377366004611c9d565b6108cc565b34801561038857600080fd5b506102af610397366004611c3f565b610b29565b3480156103a857600080fd5b506102af6103b7366004611d9e565b610b44565b3480156103c857600080fd5b506102776103d7366004611be5565b610b85565b3480156103e857600080fd5b506101f2670429d069189e000081565b34801561040457600080fd5b5061024a610bfc565b34801561041957600080fd5b506101f2610428366004611c80565b610c8a565b34801561043957600080fd5b506102af610d11565b34801561044e57600080fd5b506102af610d47565b34801561046357600080fd5b5060065461022590600160a81b900460ff1681565b34801561048457600080fd5b506006546001600160a01b0316610277565b6101f26104a4366004611c80565b610d86565b3480156104b557600080fd5b5061024a610eb9565b3480156104ca57600080fd5b506102af6104d9366004611de7565b610ec8565b3480156104ea57600080fd5b506102af610ed3565b3480156104ff57600080fd5b506102af61050e366004611e25565b610f12565b34801561051f57600080fd5b5061024a61052e366004611be5565b610f4a565b34801561053f57600080fd5b506102af611025565b34801561055457600080fd5b506101f2610563366004611c80565b611090565b34801561057457600080fd5b50610225610583366004611ea5565b6001600160a01b03918216600090815260056020908152604080832093909416825291909152205460ff1690565b3480156105bd57600080fd5b506102af6105cc366004611c80565b61111f565b60006001600160e01b031982166380ac58cd60e01b148061060257506001600160e01b03198216635b5e139f60e01b145b8061061d57506301ffc9a760e01b6001600160e01b03198316145b92915050565b60606000805461063290611ed3565b80601f016020809104026020016040519081016040528092919081815260200182805461065e90611ed3565b80156106ab5780601f10610680576101008083540402835291602001916106ab565b820191906000526020600020905b81548152906001019060200180831161068e57829003601f168201915b5050505050905090565b6000818152600260205260408120546001600160a01b03166107335760405162461bcd60e51b815260206004820152602c60248201527f4552433732313a20617070726f76656420717565727920666f72206e6f6e657860448201526b34b9ba32b73a103a37b5b2b760a11b60648201526084015b60405180910390fd5b506000908152600460205260409020546001600160a01b031690565b600061075a82610b85565b9050806001600160a01b0316836001600160a01b031614156107c85760405162461bcd60e51b815260206004820152602160248201527f4552433732313a20617070726f76616c20746f2063757272656e74206f776e656044820152603960f91b606482015260840161072a565b336001600160a01b03821614806107e457506107e48133610583565b6108565760405162461bcd60e51b815260206004820152603860248201527f4552433732313a20617070726f76652063616c6c6572206973206e6f74206f7760448201527f6e6572206e6f7220617070726f76656420666f7220616c6c0000000000000000606482015260840161072a565b61086083836111b7565b505050565b61086f3382611225565b61088b5760405162461bcd60e51b815260040161072a90611f0e565b61086083838361131c565b6006546001600160a01b031633146108c05760405162461bcd60e51b815260040161072a90611f5f565b6108c9816114b8565b50565b600654600090600160a81b900460ff166109285760405162461bcd60e51b815260206004820181905260248201527f57686974656c697374206d696e74206e6f7420617661696c61626c6520796574604482015260640161072a565b600654600160a01b900460ff161561098e5760405162461bcd60e51b815260206004820152602360248201527f57686974656c6973656420726564656d7074696f6e73206861766520657870696044820152621c995960ea1b606482015260840161072a565b3360009081526009602052604090205460ff16156109fe5760405162461bcd60e51b815260206004820152602760248201527f5468697320776869746c6973746564206164647265737320616c72656164792060448201526618db185a5b595960ca1b606482015260840161072a565b6000600860008154610a0f90611faa565b91829055506040516bffffffffffffffffffffffff193360601b166020820152909150600090603401604051602081830303815290604052805190602001209050610ab08585808060200260200160405190810160405280939291908181526020018383602002808284376000920191909152507f000000000000000000000000000000000000000000000000000000000000000092508591506115369050565b610afc5760405162461bcd60e51b815260206004820152601760248201527f41646472657373206e6f742077686974656c6973746564000000000000000000604482015260640161072a565b610b06338361154c565b50336000908152600960205260409020805460ff19166001179055905092915050565b61086083838360405180602001604052806000815250610f12565b6006546001600160a01b03163314610b6e5760405162461bcd60e51b815260040161072a90611f5f565b8051610b81906007906020840190611aae565b5050565b6000818152600260205260408120546001600160a01b03168061061d5760405162461bcd60e51b815260206004820152602960248201527f4552433732313a206f776e657220717565727920666f72206e6f6e657869737460448201526832b73a103a37b5b2b760b91b606482015260840161072a565b60078054610c0990611ed3565b80601f0160208091040260200160405190810160405280929190818152602001828054610c3590611ed3565b8015610c825780601f10610c5757610100808354040283529160200191610c82565b820191906000526020600020905b815481529060010190602001808311610c6557829003601f168201915b505050505081565b60006001600160a01b038216610cf55760405162461bcd60e51b815260206004820152602a60248201527f4552433732313a2062616c616e636520717565727920666f7220746865207a65604482015269726f206164647265737360b01b606482015260840161072a565b506001600160a01b031660009081526003602052604090205490565b6006546001600160a01b03163314610d3b5760405162461bcd60e51b815260040161072a90611f5f565b610d456000611566565b565b6006546001600160a01b03163314610d715760405162461bcd60e51b815260040161072a90611f5f565b6006805460ff60a01b1916600160a01b179055565b600654600090600160a01b900460ff16610de25760405162461bcd60e51b815260206004820152601d60248201527f5075626c6963206d696e74206e6f7420617661696c61626c6520796574000000604482015260640161072a565b670429d069189e00003414610e505760405162461bcd60e51b815260206004820152602e60248201527f5472616e73616374696f6e2076616c756520646964206e6f7420657175616c2060448201526d746865206d696e7420707269636560901b606482015260840161072a565b6000600860008154610e6190611faa565b91829055509050612710811115610eaf5760405162461bcd60e51b815260206004820152601260248201527113585e081cdd5c1c1b1e481c995858da195960721b604482015260640161072a565b61061d838261154c565b60606001805461063290611ed3565b610b813383836115b8565b6006546001600160a01b03163314610efd5760405162461bcd60e51b815260040161072a90611f5f565b6006805460ff60a81b1916600160a81b179055565b610f1c3383611225565b610f385760405162461bcd60e51b815260040161072a90611f0e565b610f4484848484611687565b50505050565b6000818152600260205260409020546060906001600160a01b0316610fc95760405162461bcd60e51b815260206004820152602f60248201527f4552433732314d657461646174613a2055524920717565727920666f72206e6f60448201526e3732bc34b9ba32b73a103a37b5b2b760891b606482015260840161072a565b6000610fd36116ba565b90506000815111610ff3576040518060200160405280600081525061101e565b80610ffd846116c9565b60405160200161100e929190611fc5565b6040516020818303038152906040525b9392505050565b6006546001600160a01b0316331461104f5760405162461bcd60e51b815260040161072a90611f5f565b60005b60968110156108c957600060086000815461106c90611faa565b9182905550905061107d338261154c565b508061108881611faa565b915050611052565b6040516371d4ed8d60e11b81526001600160a01b0382811660048301526000917f00000000000000000000000000000000000000000000000000000000000000009091169063e3a9db1a90602401602060405180830381865afa1580156110fb573d6000803e3d6000fd5b505050506040513d601f19601f8201168201806040525081019061061d9190611ff4565b6006546001600160a01b031633146111495760405162461bcd60e51b815260040161072a90611f5f565b6001600160a01b0381166111ae5760405162461bcd60e51b815260206004820152602660248201527f4f776e61626c653a206e6577206f776e657220697320746865207a65726f206160448201526564647265737360d01b606482015260840161072a565b6108c981611566565b600081815260046020526040902080546001600160a01b0319166001600160a01b03841690811790915581906111ec82610b85565b6001600160a01b03167f8c5be1e5ebec7d5bd14f71427d1e84f3dd0314c0f7b2291e5b200ac8c7c3b92560405160405180910390a45050565b6000818152600260205260408120546001600160a01b031661129e5760405162461bcd60e51b815260206004820152602c60248201527f4552433732313a206f70657261746f7220717565727920666f72206e6f6e657860448201526b34b9ba32b73a103a37b5b2b760a11b606482015260840161072a565b60006112a983610b85565b9050806001600160a01b0316846001600160a01b031614806112f057506001600160a01b0380821660009081526005602090815260408083209388168352929052205460ff165b806113145750836001600160a01b0316611309846106b5565b6001600160a01b0316145b949350505050565b826001600160a01b031661132f82610b85565b6001600160a01b0316146113935760405162461bcd60e51b815260206004820152602560248201527f4552433732313a207472616e736665722066726f6d20696e636f72726563742060448201526437bbb732b960d91b606482015260840161072a565b6001600160a01b0382166113f55760405162461bcd60e51b8152602060048201526024808201527f4552433732313a207472616e7366657220746f20746865207a65726f206164646044820152637265737360e01b606482015260840161072a565b6114006000826111b7565b6001600160a01b038316600090815260036020526040812080546001929061142990849061200d565b90915550506001600160a01b0382166000908152600360205260408120805460019290611457908490612024565b909155505060008181526002602052604080822080546001600160a01b0319166001600160a01b0386811691821790925591518493918716917fddf252ad1be2c89b69c2b068fc378daa952ba7f163c4a11628f55a4df523b3ef91a4505050565b6040516351cff8d960e01b81526001600160a01b0382811660048301527f000000000000000000000000000000000000000000000000000000000000000016906351cff8d990602401600060405180830381600087803b15801561151b57600080fd5b505af115801561152f573d6000803e3d6000fd5b5050505050565b60008261154385846117c7565b14949350505050565b610b8182826040518060200160405280600081525061183b565b600680546001600160a01b038381166001600160a01b0319831681179093556040519116919082907f8be0079c531659141344cd1fd0a4f28419497f9722a3daafe3b4186f6b6457e090600090a35050565b816001600160a01b0316836001600160a01b0316141561161a5760405162461bcd60e51b815260206004820152601960248201527f4552433732313a20617070726f766520746f2063616c6c657200000000000000604482015260640161072a565b6001600160a01b03838116600081815260056020908152604080832094871680845294825291829020805460ff191686151590811790915591519182527f17307eab39ab6107e8899845ad3d59bd9653f200f220920489ca2b5937696c31910160405180910390a3505050565b61169284848461131c565b61169e8484848461186e565b610f445760405162461bcd60e51b815260040161072a9061203c565b60606007805461063290611ed3565b6060816116ed5750506040805180820190915260018152600360fc1b602082015290565b8160005b8115611717578061170181611faa565b91506117109050600a836120a4565b91506116f1565b60008167ffffffffffffffff81111561173257611732611d12565b6040519080825280601f01601f19166020018201604052801561175c576020820181803683370190505b5090505b84156113145761177160018361200d565b915061177e600a866120b8565b611789906030612024565b60f81b81838151811061179e5761179e6120cc565b60200101906001600160f81b031916908160001a9053506117c0600a866120a4565b9450611760565b600081815b84518110156118335760008582815181106117e9576117e96120cc565b6020026020010151905080831161180f5760008381526020829052604090209250611820565b600081815260208490526040902092505b508061182b81611faa565b9150506117cc565b509392505050565b611845838361196c565b611852600084848461186e565b6108605760405162461bcd60e51b815260040161072a9061203c565b60006001600160a01b0384163b1561196157604051630a85bd0160e11b81526001600160a01b0385169063150b7a02906118b29033908990889088906004016120e2565b6020604051808303816000875af19250505080156118ed575060408051601f3d908101601f191682019092526118ea9181019061211f565b60015b611947573d80801561191b576040519150601f19603f3d011682016040523d82523d6000602084013e611920565b606091505b50805161193f5760405162461bcd60e51b815260040161072a9061203c565b805181602001fd5b6001600160e01b031916630a85bd0160e11b149050611314565b506001949350505050565b6001600160a01b0382166119c25760405162461bcd60e51b815260206004820181905260248201527f4552433732313a206d696e7420746f20746865207a65726f2061646472657373604482015260640161072a565b6000818152600260205260409020546001600160a01b031615611a275760405162461bcd60e51b815260206004820152601c60248201527f4552433732313a20746f6b656e20616c7265616479206d696e74656400000000604482015260640161072a565b6001600160a01b0382166000908152600360205260408120805460019290611a50908490612024565b909155505060008181526002602052604080822080546001600160a01b0319166001600160a01b03861690811790915590518392907fddf252ad1be2c89b69c2b068fc378daa952ba7f163c4a11628f55a4df523b3ef908290a45050565b828054611aba90611ed3565b90600052602060002090601f016020900481019282611adc5760008555611b22565b82601f10611af557805160ff1916838001178555611b22565b82800160010185558215611b22579182015b82811115611b22578251825591602001919060010190611b07565b50611b2e929150611b32565b5090565b5b80821115611b2e5760008155600101611b33565b6001600160e01b0319811681146108c957600080fd5b600060208284031215611b6f57600080fd5b813561101e81611b47565b60005b83811015611b95578181015183820152602001611b7d565b83811115610f445750506000910152565b60008151808452611bbe816020860160208601611b7a565b601f01601f19169290920160200192915050565b60208152600061101e6020830184611ba6565b600060208284031215611bf757600080fd5b5035919050565b6001600160a01b03811681146108c957600080fd5b60008060408385031215611c2657600080fd5b8235611c3181611bfe565b946020939093013593505050565b600080600060608486031215611c5457600080fd5b8335611c5f81611bfe565b92506020840135611c6f81611bfe565b929592945050506040919091013590565b600060208284031215611c9257600080fd5b813561101e81611bfe565b60008060208385031215611cb057600080fd5b823567ffffffffffffffff80821115611cc857600080fd5b818501915085601f830112611cdc57600080fd5b813581811115611ceb57600080fd5b8660208260051b8501011115611d0057600080fd5b60209290920196919550909350505050565b634e487b7160e01b600052604160045260246000fd5b600067ffffffffffffffff80841115611d4357611d43611d12565b604051601f8501601f19908116603f01168101908282118183101715611d6b57611d6b611d12565b81604052809350858152868686011115611d8457600080fd5b858560208301376000602087830101525050509392505050565b600060208284031215611db057600080fd5b813567ffffffffffffffff811115611dc757600080fd5b8201601f81018413611dd857600080fd5b61131484823560208401611d28565b60008060408385031215611dfa57600080fd5b8235611e0581611bfe565b915060208301358015158114611e1a57600080fd5b809150509250929050565b60008060008060808587031215611e3b57600080fd5b8435611e4681611bfe565b93506020850135611e5681611bfe565b925060408501359150606085013567ffffffffffffffff811115611e7957600080fd5b8501601f81018713611e8a57600080fd5b611e9987823560208401611d28565b91505092959194509250565b60008060408385031215611eb857600080fd5b8235611ec381611bfe565b91506020830135611e1a81611bfe565b600181811c90821680611ee757607f821691505b60208210811415611f0857634e487b7160e01b600052602260045260246000fd5b50919050565b60208082526031908201527f4552433732313a207472616e736665722063616c6c6572206973206e6f74206f6040820152701ddb995c881b9bdc88185c1c1c9bdd9959607a1b606082015260800190565b6020808252818101527f4f776e61626c653a2063616c6c6572206973206e6f7420746865206f776e6572604082015260600190565b634e487b7160e01b600052601160045260246000fd5b6000600019821415611fbe57611fbe611f94565b5060010190565b60008351611fd7818460208801611b7a565b835190830190611feb818360208801611b7a565b01949350505050565b60006020828403121561200657600080fd5b5051919050565b60008282101561201f5761201f611f94565b500390565b6000821982111561203757612037611f94565b500190565b60208082526032908201527f4552433732313a207472616e7366657220746f206e6f6e20455243373231526560408201527131b2b4bb32b91034b6b83632b6b2b73a32b960711b606082015260800190565b634e487b7160e01b600052601260045260246000fd5b6000826120b3576120b361208e565b500490565b6000826120c7576120c761208e565b500690565b634e487b7160e01b600052603260045260246000fd5b6001600160a01b038581168252841660208201526040810183905260806060820181905260009061211590830184611ba6565b9695505050505050565b60006020828403121561213157600080fd5b815161101e81611b4756fea2646970667358221220af7abb449958b4f1dcd9cf66533ecb36b4d3c54bc76384ee5ace1c4de190146664736f6c634300080a0033608060405234801561001057600080fd5b5061001a3361001f565b61006f565b600080546001600160a01b038381166001600160a01b0319831681178455604051919092169283917f8be0079c531659141344cd1fd0a4f28419497f9722a3daafe3b4186f6b6457e09190a35050565b6105748061007e6000396000f3fe6080604052600436106100555760003560e01c806351cff8d91461005a578063715018a61461007c5780638da5cb5b14610091578063e3a9db1a146100be578063f2fde38b14610102578063f340fa0114610122575b600080fd5b34801561006657600080fd5b5061007a6100753660046104bf565b610135565b005b34801561008857600080fd5b5061007a6101d7565b34801561009d57600080fd5b506000546040516001600160a01b0390911681526020015b60405180910390f35b3480156100ca57600080fd5b506100f46100d93660046104bf565b6001600160a01b031660009081526001602052604090205490565b6040519081526020016100b5565b34801561010e57600080fd5b5061007a61011d3660046104bf565b61020d565b61007a6101303660046104bf565b6102a8565b6000546001600160a01b031633146101685760405162461bcd60e51b815260040161015f906104e3565b60405180910390fd5b6001600160a01b0381166000818152600160205260408120805491905590610190908261033c565b816001600160a01b03167f7084f5476618d8e60b11ef0d7d3f06914655adb8793e28ff7f018d4c76d505d5826040516101cb91815260200190565b60405180910390a25050565b6000546001600160a01b031633146102015760405162461bcd60e51b815260040161015f906104e3565b61020b600061045a565b565b6000546001600160a01b031633146102375760405162461bcd60e51b815260040161015f906104e3565b6001600160a01b03811661029c5760405162461bcd60e51b815260206004820152602660248201527f4f776e61626c653a206e6577206f776e657220697320746865207a65726f206160448201526564647265737360d01b606482015260840161015f565b6102a58161045a565b50565b6000546001600160a01b031633146102d25760405162461bcd60e51b815260040161015f906104e3565b6001600160a01b0381166000908152600160205260408120805434928392916102fc908490610518565b90915550506040518181526001600160a01b038316907f2da466a7b24304f47e87fa2e1e5a81b9831ce54fec19055ce277ca2f39ba42c4906020016101cb565b8047101561038c5760405162461bcd60e51b815260206004820152601d60248201527f416464726573733a20696e73756666696369656e742062616c616e6365000000604482015260640161015f565b6000826001600160a01b03168260405160006040518083038185875af1925050503d80600081146103d9576040519150601f19603f3d011682016040523d82523d6000602084013e6103de565b606091505b50509050806104555760405162461bcd60e51b815260206004820152603a60248201527f416464726573733a20756e61626c6520746f2073656e642076616c75652c207260448201527f6563697069656e74206d61792068617665207265766572746564000000000000606482015260840161015f565b505050565b600080546001600160a01b038381166001600160a01b0319831681178455604051919092169283917f8be0079c531659141344cd1fd0a4f28419497f9722a3daafe3b4186f6b6457e09190a35050565b6001600160a01b03811681146102a557600080fd5b6000602082840312156104d157600080fd5b81356104dc816104aa565b9392505050565b6020808252818101527f4f776e61626c653a2063616c6c6572206973206e6f7420746865206f776e6572604082015260600190565b6000821982111561053957634e487b7160e01b600052601160045260246000fd5b50019056fea2646970667358221220a00c96caa90818aed7eee6677994d8d38eea98e2061a2e79ed2529b006a41d2764736f6c634300080a0033",
    "linkReferences": {}
  }
}