{
  "abi": [
    {
      "inputs": [
        {
          "internalType": "string",
          "name": "_name",
          "type": "string"
        },
        {
          "internalType": "string",
          "name": "_symbol",
          "type": "string"
        },
        {
          "internalType": "bytes32",
          "name": "_merkleroot",
          "type": "bytes32"
        },
        {
          "internalType": "bool",
          "name": "_publicMint",
          "type": "bool"
        },
        {
          "internalType": "bool",
          "name": "_whitelistMint",
          "type": "bool"
        }
      ],
      "stateMutability": "nonpayable",
      "type": "constructor"
    },
    {
      "anonymous": false,
      "inputs": [
        {
          "indexed": true,
          "internalType": "address",
          "name": "owner",
          "type": "address"
        },
        {
          "indexed": true,
          "internalType": "address",
          "name": "approved",
          "type": "address"
        },
        {
          "indexed": true,
          "internalType": "uint256",
          "name": "tokenId",
          "type": "uint256"
        }
      ],
      "name": "Approval",
      "type": "event"
    },
    {
      "anonymous": false,
      "inputs": [
        {
          "indexed": true,
          "internalType": "address",
          "name": "owner",
          "type": "address"
        },
        {
          "indexed": true,
          "internalType": "address",
          "name": "operator",
          "type": "address"
        },
        {
          "indexed": false,
          "internalType": "bool",
          "name": "approved",
          "type": "bool"
        }
      ],
      "name": "ApprovalForAll",
      "type": "event"
    },
    {
      "anonymous": false,
      "inputs": [
        {
          "indexed": true,
          "internalType": "address",
          "name": "previousOwner",
          "type": "address"
        },
        {
          "indexed": true,
          "internalType": "address",
          "name": "newOwner",
          "type": "address"
        }
      ],
      "name": "OwnershipTransferred",
      "type": "event"
    },
    {
      "anonymous": false,
      "inputs": [
        {
          "indexed": true,
          "internalType": "address",
          "name": "from",
          "type": "address"
        },
        {
          "indexed": true,
          "internalType": "address",
          "name": "to",
          "type": "address"
        },
        {
          "indexed": true,
          "internalType": "uint256",
          "name": "tokenId",
          "type": "uint256"
        }
      ],
      "name": "Transfer",
      "type": "event"
    },
    {
      "inputs": [
        {
          "internalType": "address",
          "name": "to",
          "type": "address"
        },
        {
          "internalType": "uint256",
          "name": "tokenId",
          "type": "uint256"
        }
      ],
      "name": "approve",
      "outputs": [],
      "stateMutability": "nonpayable",
      "type": "function"
    },
    {
      "inputs": [
        {
          "internalType": "address",
          "name": "owner",
          "type": "address"
        }
      ],
      "name": "balanceOf",
      "outputs": [
        {
          "internalType": "uint256",
          "name": "",
          "type": "uint256"
        }
      ],
      "stateMutability": "view",
      "type": "function"
    },
    {
      "inputs": [],
      "name": "baseURI",
      "outputs": [
        {
          "internalType": "string",
          "name": "",
          "type": "string"
        }
      ],
      "stateMutability": "view",
      "type": "function"
    },
    {
      "inputs": [],
      "name": "currentTokenId",
      "outputs": [
        {
          "internalType": "uint256",
          "name": "",
          "type": "uint256"
        }
      ],
      "stateMutability": "view",
      "type": "function"
    },
    {
      "inputs": [
        {
          "internalType": "uint256",
          "name": "tokenId",
          "type": "uint256"
        }
      ],
      "name": "getApproved",
      "outputs": [
        {
          "internalType": "address",
          "name": "",
          "type": "address"
        }
      ],
      "stateMutability": "view",
      "type": "function"
    },
    {
      "inputs": [
        {
          "internalType": "address",
          "name": "owner",
          "type": "address"
        },
        {
          "internalType": "address",
          "name": "operator",
          "type": "address"
        }
      ],
      "name": "isApprovedForAll",
      "outputs": [
        {
          "internalType": "bool",
          "name": "",
          "type": "bool"
        }
      ],
      "stateMutability": "view",
      "type": "function"
    },
    {
      "inputs": [],
      "name": "merkleRoot",
      "outputs": [
        {
          "internalType": "bytes32",
          "name": "",
          "type": "bytes32"
        }
      ],
      "stateMutability": "view",
      "type": "function"
    },
    {
      "inputs": [],
      "name": "mintPrice",
      "outputs": [
        {
          "internalType": "uint256",
          "name": "",
          "type": "uint256"
        }
      ],
      "stateMutability": "view",
      "type": "function"
    },
    {
      "inputs": [],
      "name": "name",
      "outputs": [
        {
          "internalType": "string",
          "name": "",
          "type": "string"
        }
      ],
      "stateMutability": "view",
      "type": "function"
    },
    {
      "inputs": [],
      "name": "owner",
      "outputs": [
        {
          "internalType": "address",
          "name": "",
          "type": "address"
        }
      ],
      "stateMutability": "view",
      "type": "function"
    },
    {
      "inputs": [
        {
          "internalType": "uint256",
          "name": "tokenId",
          "type": "uint256"
        }
      ],
      "name": "ownerOf",
      "outputs": [
        {
          "internalType": "address",
          "name": "",
          "type": "address"
        }
      ],
      "stateMutability": "view",
      "type": "function"
    },
    {
      "inputs": [],
      "name": "preMintForTreasury",
      "outputs": [],
      "stateMutability": "nonpayable",
      "type": "function"
    },
    {
      "inputs": [],
      "name": "publicMint",
      "outputs": [
        {
          "internalType": "bool",
          "name": "",
          "type": "bool"
        }
      ],
      "stateMutability": "view",
      "type": "function"
    },
    {
      "inputs": [
        {
          "internalType": "address",
          "name": "recipient",
          "type": "address"
        }
      ],
      "name": "publicMintTo",
      "outputs": [
        {
          "internalType": "uint256",
          "name": "",
          "type": "uint256"
        }
      ],
      "stateMutability": "payable",
      "type": "function"
    },
    {
      "inputs": [],
      "name": "renounceOwnership",
      "outputs": [],
      "stateMutability": "nonpayable",
      "type": "function"
    },
    {
      "inputs": [
        {
          "internalType": "address",
          "name": "from",
          "type": "address"
        },
        {
          "internalType": "address",
          "name": "to",
          "type": "address"
        },
        {
          "internalType": "uint256",
          "name": "tokenId",
          "type": "uint256"
        }
      ],
      "name": "safeTransferFrom",
      "outputs": [],
      "stateMutability": "nonpayable",
      "type": "function"
    },
    {
      "inputs": [
        {
          "internalType": "address",
          "name": "from",
          "type": "address"
        },
        {
          "internalType": "address",
          "name": "to",
          "type": "address"
        },
        {
          "internalType": "uint256",
          "name": "tokenId",
          "type": "uint256"
        },
        {
          "internalType": "bytes",
          "name": "_data",
          "type": "bytes"
        }
      ],
      "name": "safeTransferFrom",
      "outputs": [],
      "stateMutability": "nonpayable",
      "type": "function"
    },
    {
      "inputs": [
        {
          "internalType": "address",
          "name": "operator",
          "type": "address"
        },
        {
          "internalType": "bool",
          "name": "approved",
          "type": "bool"
        }
      ],
      "name": "setApprovalForAll",
      "outputs": [],
      "stateMutability": "nonpayable",
      "type": "function"
    },
    {
      "inputs": [
        {
          "internalType": "string",
          "name": "_baseURI",
          "type": "string"
        }
      ],
      "name": "setBaseURI",
      "outputs": [],
      "stateMutability": "nonpayable",
      "type": "function"
    },
    {
      "inputs": [],
      "name": "startPublicMint",
      "outputs": [],
      "stateMutability": "nonpayable",
      "type": "function"
    },
    {
      "inputs": [],
      "name": "startWhitelistMint",
      "outputs": [],
      "stateMutability": "nonpayable",
      "type": "function"
    },
    {
      "inputs": [
        {
          "internalType": "bytes4",
          "name": "interfaceId",
          "type": "bytes4"
        }
      ],
      "name": "supportsInterface",
      "outputs": [
        {
          "internalType": "bool",
          "name": "",
          "type": "bool"
        }
      ],
      "stateMutability": "view",
      "type": "function"
    },
    {
      "inputs": [],
      "name": "symbol",
      "outputs": [
        {
          "internalType": "string",
          "name": "",
          "type": "string"
        }
      ],
      "stateMutability": "view",
      "type": "function"
    },
    {
      "inputs": [
        {
          "internalType": "uint256",
          "name": "tokenId",
          "type": "uint256"
        }
      ],
      "name": "tokenURI",
      "outputs": [
        {
          "internalType": "string",
          "name": "",
          "type": "string"
        }
      ],
      "stateMutability": "view",
      "type": "function"
    },
    {
      "inputs": [],
      "name": "totalSupply",
      "outputs": [
        {
          "internalType": "uint256",
          "name": "",
          "type": "uint256"
        }
      ],
      "stateMutability": "view",
      "type": "function"
    },
    {
      "inputs": [
        {
          "internalType": "address",
          "name": "from",
          "type": "address"
        },
        {
          "internalType": "address",
          "name": "to",
          "type": "address"
        },
        {
          "internalType": "uint256",
          "name": "tokenId",
          "type": "uint256"
        }
      ],
      "name": "transferFrom",
      "outputs": [],
      "stateMutability": "nonpayable",
      "type": "function"
    },
    {
      "inputs": [
        {
          "internalType": "address",
          "name": "newOwner",
          "type": "address"
        }
      ],
      "name": "transferOwnership",
      "outputs": [],
      "stateMutability": "nonpayable",
      "type": "function"
    },
    {
      "inputs": [
        {
          "internalType": "bytes32[]",
          "name": "proof",
          "type": "bytes32[]"
        }
      ],
      "name": "whitelistClaim",
      "outputs": [
        {
          "internalType": "uint256",
          "name": "",
          "type": "uint256"
        }
      ],
      "stateMutability": "nonpayable",
      "type": "function"
    },
    {
      "inputs": [],
      "name": "whitelistMint",
      "outputs": [
        {
          "internalType": "bool",
          "name": "",
          "type": "bool"
        }
      ],
      "stateMutability": "view",
      "type": "function"
    },
    {
      "inputs": [
        {
          "internalType": "address payable",
          "name": "payee",
          "type": "address"
        }
      ],
      "name": "withdrawPayments",
      "outputs": [],
      "stateMutability": "nonpayable",
      "type": "function"
    }
  ],
  "bytecode": {
    "object": "0x60a06040523480156200001157600080fd5b50604051620023cb380380620023cb83398101604081905262000034916200029f565b8451859085906200004d90600090602085019062000116565b5080516200006390600190602084019062000116565b505050620000806200007a620000c060201b60201c565b620000c4565b60809290925260068054921515600160a81b0260ff60a81b19921515600160a01b029290921661ffff60a01b199093169290921717905550620003749050565b3390565b600680546001600160a01b038381166001600160a01b0319831681179093556040519116919082907f8be0079c531659141344cd1fd0a4f28419497f9722a3daafe3b4186f6b6457e090600090a35050565b828054620001249062000338565b90600052602060002090601f01602090048101928262000148576000855562000193565b82601f106200016357805160ff191683800117855562000193565b8280016001018555821562000193579182015b828111156200019357825182559160200191906001019062000176565b50620001a1929150620001a5565b5090565b5b80821115620001a15760008155600101620001a6565b634e487b7160e01b600052604160045260246000fd5b600082601f830112620001e457600080fd5b81516001600160401b0380821115620002015762000201620001bc565b604051601f8301601f19908116603f011681019082821181831017156200022c576200022c620001bc565b816040528381526020925086838588010111156200024957600080fd5b600091505b838210156200026d57858201830151818301840152908201906200024e565b838211156200027f5760008385830101525b9695505050505050565b805180151581146200029a57600080fd5b919050565b600080600080600060a08688031215620002b857600080fd5b85516001600160401b0380821115620002d057600080fd5b620002de89838a01620001d2565b96506020880151915080821115620002f557600080fd5b506200030488828901620001d2565b945050604086015192506200031c6060870162000289565b91506200032c6080870162000289565b90509295509295909350565b600181811c908216806200034d57607f821691505b6020821081036200036e57634e487b7160e01b600052602260045260246000fd5b50919050565b608051612034620003976000396000818161030f0152610aac01526120346000f3fe6080604052600436106101cc5760003560e01c80636c0360eb116100f757806395d89b4111610095578063c87b56dd11610064578063c87b56dd14610508578063d4eaf2e214610528578063e985e9c51461053d578063f2fde38b1461058657600080fd5b806395d89b411461049e578063a22cb465146104b3578063b70196d7146104d3578063b88d4fde146104e857600080fd5b806376c64c62116100d157806376c64c6214610437578063804f43cd1461044c5780638da5cb5b1461046d5780638ef535b91461048b57600080fd5b80636c0360eb146103ed57806370a0823114610402578063715018a61461042257600080fd5b806326092b831161016f57806354703d0c1161013e57806354703d0c1461037157806355f804b3146103915780636352211e146103b15780636817c76c146103d157600080fd5b806326092b83146102dc5780632eb4a7ab146102fd57806331b3eb941461033157806342842e0e1461035157600080fd5b8063081812fc116101ab578063081812fc1461024c578063095ea7b31461028457806318160ddd146102a657806323b872dd146102bc57600080fd5b80629a9b7b146101d157806301ffc9a7146101fa57806306fdde031461022a575b600080fd5b3480156101dd57600080fd5b506101e760085481565b6040519081526020015b60405180910390f35b34801561020657600080fd5b5061021a610215366004611a64565b6105a6565b60405190151581526020016101f1565b34801561023657600080fd5b5061023f6105f8565b6040516101f19190611ad9565b34801561025857600080fd5b5061026c610267366004611aec565b61068a565b6040516001600160a01b0390911681526020016101f1565b34801561029057600080fd5b506102a461029f366004611b1a565b610724565b005b3480156102b257600080fd5b506101e76107d081565b3480156102c857600080fd5b506102a46102d7366004611b46565b610839565b3480156102e857600080fd5b5060065461021a90600160a01b900460ff1681565b34801561030957600080fd5b506101e77f000000000000000000000000000000000000000000000000000000000000000081565b34801561033d57600080fd5b506102a461034c366004611b87565b61086a565b34801561035d57600080fd5b506102a461036c366004611b46565b6108f4565b34801561037d57600080fd5b506101e761038c366004611ba4565b61090f565b34801561039d57600080fd5b506102a46103ac366004611ca5565b610b50565b3480156103bd57600080fd5b5061026c6103cc366004611aec565b610b91565b3480156103dd57600080fd5b506101e7670429d069189e000081565b3480156103f957600080fd5b5061023f610c08565b34801561040e57600080fd5b506101e761041d366004611b87565b610c96565b34801561042e57600080fd5b506102a4610d1d565b34801561044357600080fd5b506102a4610d53565b34801561045857600080fd5b5060065461021a90600160a81b900460ff1681565b34801561047957600080fd5b506006546001600160a01b031661026c565b6101e7610499366004611b87565b610d92565b3480156104aa57600080fd5b5061023f610ec5565b3480156104bf57600080fd5b506102a46104ce366004611cee565b610ed4565b3480156104df57600080fd5b506102a4610edf565b3480156104f457600080fd5b506102a4610503366004611d2c565b610f1e565b34801561051457600080fd5b5061023f610523366004611aec565b610f56565b34801561053457600080fd5b506102a4611031565b34801561054957600080fd5b5061021a610558366004611dac565b6001600160a01b03918216600090815260056020908152604080832093909416825291909152205460ff1690565b34801561059257600080fd5b506102a46105a1366004611b87565b61109f565b60006001600160e01b031982166380ac58cd60e01b14806105d757506001600160e01b03198216635b5e139f60e01b145b806105f257506301ffc9a760e01b6001600160e01b03198316145b92915050565b60606000805461060790611dda565b80601f016020809104026020016040519081016040528092919081815260200182805461063390611dda565b80156106805780601f1061065557610100808354040283529160200191610680565b820191906000526020600020905b81548152906001019060200180831161066357829003601f168201915b5050505050905090565b6000818152600260205260408120546001600160a01b03166107085760405162461bcd60e51b815260206004820152602c60248201527f4552433732313a20617070726f76656420717565727920666f72206e6f6e657860448201526b34b9ba32b73a103a37b5b2b760a11b60648201526084015b60405180910390fd5b506000908152600460205260409020546001600160a01b031690565b600061072f82610b91565b9050806001600160a01b0316836001600160a01b03160361079c5760405162461bcd60e51b815260206004820152602160248201527f4552433732313a20617070726f76616c20746f2063757272656e74206f776e656044820152603960f91b60648201526084016106ff565b336001600160a01b03821614806107b857506107b88133610558565b61082a5760405162461bcd60e51b815260206004820152603860248201527f4552433732313a20617070726f76652063616c6c6572206973206e6f74206f7760448201527f6e6572206e6f7220617070726f76656420666f7220616c6c000000000000000060648201526084016106ff565b6108348383611137565b505050565b61084333826111a5565b61085f5760405162461bcd60e51b81526004016106ff90611e14565b61083483838361129c565b6006546001600160a01b031633146108945760405162461bcd60e51b81526004016106ff90611e65565b60405147906000906001600160a01b0384169083908381818185875af1925050503d80600081146108e1576040519150601f19603f3d011682016040523d82523d6000602084013e6108e6565b606091505b505090508061083457600080fd5b61083483838360405180602001604052806000815250610f1e565b600654600090600160a81b900460ff1661096b5760405162461bcd60e51b815260206004820181905260248201527f57686974656c697374206d696e74206e6f7420617661696c61626c652079657460448201526064016106ff565b600654600160a01b900460ff16156109c55760405162461bcd60e51b815260206004820152601e60248201527f57686974656c6973656420636c61696d7320686176652065787069726564000060448201526064016106ff565b3360009081526009602052604090205460ff1615610a255760405162461bcd60e51b815260206004820152601760248201527f4164647265737320616c726561647920636c61696d656400000000000000000060448201526064016106ff565b6000600860008154610a3690611eb0565b91829055506040516bffffffffffffffffffffffff193360601b166020820152909150600090603401604051602081830303815290604052805190602001209050610ad78585808060200260200160405190810160405280939291908181526020018383602002808284376000920191909152507f000000000000000000000000000000000000000000000000000000000000000092508591506114389050565b610b235760405162461bcd60e51b815260206004820152601760248201527f41646472657373206e6f742077686974656c697374656400000000000000000060448201526064016106ff565b610b2d338361144e565b50336000908152600960205260409020805460ff19166001179055905092915050565b6006546001600160a01b03163314610b7a5760405162461bcd60e51b81526004016106ff90611e65565b8051610b8d9060079060208401906119b5565b5050565b6000818152600260205260408120546001600160a01b0316806105f25760405162461bcd60e51b815260206004820152602960248201527f4552433732313a206f776e657220717565727920666f72206e6f6e657869737460448201526832b73a103a37b5b2b760b91b60648201526084016106ff565b60078054610c1590611dda565b80601f0160208091040260200160405190810160405280929190818152602001828054610c4190611dda565b8015610c8e5780601f10610c6357610100808354040283529160200191610c8e565b820191906000526020600020905b815481529060010190602001808311610c7157829003601f168201915b505050505081565b60006001600160a01b038216610d015760405162461bcd60e51b815260206004820152602a60248201527f4552433732313a2062616c616e636520717565727920666f7220746865207a65604482015269726f206164647265737360b01b60648201526084016106ff565b506001600160a01b031660009081526003602052604090205490565b6006546001600160a01b03163314610d475760405162461bcd60e51b81526004016106ff90611e65565b610d516000611468565b565b6006546001600160a01b03163314610d7d5760405162461bcd60e51b81526004016106ff90611e65565b6006805460ff60a01b1916600160a01b179055565b600654600090600160a01b900460ff16610dee5760405162461bcd60e51b815260206004820152601d60248201527f5075626c6963206d696e74206e6f7420617661696c61626c652079657400000060448201526064016106ff565b670429d069189e00003414610e5c5760405162461bcd60e51b815260206004820152602e60248201527f5472616e73616374696f6e2076616c756520646964206e6f7420657175616c2060448201526d746865206d696e7420707269636560901b60648201526084016106ff565b6000600860008154610e6d90611eb0565b918290555090506107d0811115610ebb5760405162461bcd60e51b815260206004820152601260248201527113585e081cdd5c1c1b1e481c995858da195960721b60448201526064016106ff565b6105f2838261144e565b60606001805461060790611dda565b610b8d3383836114ba565b6006546001600160a01b03163314610f095760405162461bcd60e51b81526004016106ff90611e65565b6006805460ff60a81b1916600160a81b179055565b610f2833836111a5565b610f445760405162461bcd60e51b81526004016106ff90611e14565b610f5084848484611588565b50505050565b6000818152600260205260409020546060906001600160a01b0316610fd55760405162461bcd60e51b815260206004820152602f60248201527f4552433732314d657461646174613a2055524920717565727920666f72206e6f60448201526e3732bc34b9ba32b73a103a37b5b2b760891b60648201526084016106ff565b6000610fdf6115bb565b90506000815111610fff576040518060200160405280600081525061102a565b80611009846115ca565b60405160200161101a929190611ec9565b6040516020818303038152906040525b9392505050565b6006546001600160a01b0316331461105b5760405162461bcd60e51b81526004016106ff90611e65565b60005b609681101561109c57600060086000815461107890611eb0565b91829055509050611089338261144e565b508061109481611eb0565b91505061105e565b50565b6006546001600160a01b031633146110c95760405162461bcd60e51b81526004016106ff90611e65565b6001600160a01b03811661112e5760405162461bcd60e51b815260206004820152602660248201527f4f776e61626c653a206e6577206f776e657220697320746865207a65726f206160448201526564647265737360d01b60648201526084016106ff565b61109c81611468565b600081815260046020526040902080546001600160a01b0319166001600160a01b038416908117909155819061116c82610b91565b6001600160a01b03167f8c5be1e5ebec7d5bd14f71427d1e84f3dd0314c0f7b2291e5b200ac8c7c3b92560405160405180910390a45050565b6000818152600260205260408120546001600160a01b031661121e5760405162461bcd60e51b815260206004820152602c60248201527f4552433732313a206f70657261746f7220717565727920666f72206e6f6e657860448201526b34b9ba32b73a103a37b5b2b760a11b60648201526084016106ff565b600061122983610b91565b9050806001600160a01b0316846001600160a01b0316148061127057506001600160a01b0380821660009081526005602090815260408083209388168352929052205460ff165b806112945750836001600160a01b03166112898461068a565b6001600160a01b0316145b949350505050565b826001600160a01b03166112af82610b91565b6001600160a01b0316146113135760405162461bcd60e51b815260206004820152602560248201527f4552433732313a207472616e736665722066726f6d20696e636f72726563742060448201526437bbb732b960d91b60648201526084016106ff565b6001600160a01b0382166113755760405162461bcd60e51b8152602060048201526024808201527f4552433732313a207472616e7366657220746f20746865207a65726f206164646044820152637265737360e01b60648201526084016106ff565b611380600082611137565b6001600160a01b03831660009081526003602052604081208054600192906113a9908490611ef8565b90915550506001600160a01b03821660009081526003602052604081208054600192906113d7908490611f0f565b909155505060008181526002602052604080822080546001600160a01b0319166001600160a01b0386811691821790925591518493918716917fddf252ad1be2c89b69c2b068fc378daa952ba7f163c4a11628f55a4df523b3ef91a4505050565b60008261144585846116cb565b14949350505050565b610b8d82826040518060200160405280600081525061173f565b600680546001600160a01b038381166001600160a01b0319831681179093556040519116919082907f8be0079c531659141344cd1fd0a4f28419497f9722a3daafe3b4186f6b6457e090600090a35050565b816001600160a01b0316836001600160a01b03160361151b5760405162461bcd60e51b815260206004820152601960248201527f4552433732313a20617070726f766520746f2063616c6c65720000000000000060448201526064016106ff565b6001600160a01b03838116600081815260056020908152604080832094871680845294825291829020805460ff191686151590811790915591519182527f17307eab39ab6107e8899845ad3d59bd9653f200f220920489ca2b5937696c31910160405180910390a3505050565b61159384848461129c565b61159f84848484611772565b610f505760405162461bcd60e51b81526004016106ff90611f27565b60606007805461060790611dda565b6060816000036115f15750506040805180820190915260018152600360fc1b602082015290565b8160005b811561161b578061160581611eb0565b91506116149050600a83611f8f565b91506115f5565b60008167ffffffffffffffff81111561163657611636611c19565b6040519080825280601f01601f191660200182016040528015611660576020820181803683370190505b5090505b841561129457611675600183611ef8565b9150611682600a86611fa3565b61168d906030611f0f565b60f81b8183815181106116a2576116a2611fb7565b60200101906001600160f81b031916908160001a9053506116c4600a86611f8f565b9450611664565b600081815b84518110156117375760008582815181106116ed576116ed611fb7565b602002602001015190508083116117135760008381526020829052604090209250611724565b600081815260208490526040902092505b508061172f81611eb0565b9150506116d0565b509392505050565b6117498383611873565b6117566000848484611772565b6108345760405162461bcd60e51b81526004016106ff90611f27565b60006001600160a01b0384163b1561186857604051630a85bd0160e11b81526001600160a01b0385169063150b7a02906117b6903390899088908890600401611fcd565b6020604051808303816000875af19250505080156117f1575060408051601f3d908101601f191682019092526117ee9181019061200a565b60015b61184e573d80801561181f576040519150601f19603f3d011682016040523d82523d6000602084013e611824565b606091505b5080516000036118465760405162461bcd60e51b81526004016106ff90611f27565b805181602001fd5b6001600160e01b031916630a85bd0160e11b149050611294565b506001949350505050565b6001600160a01b0382166118c95760405162461bcd60e51b815260206004820181905260248201527f4552433732313a206d696e7420746f20746865207a65726f206164647265737360448201526064016106ff565b6000818152600260205260409020546001600160a01b03161561192e5760405162461bcd60e51b815260206004820152601c60248201527f4552433732313a20746f6b656e20616c7265616479206d696e7465640000000060448201526064016106ff565b6001600160a01b0382166000908152600360205260408120805460019290611957908490611f0f565b909155505060008181526002602052604080822080546001600160a01b0319166001600160a01b03861690811790915590518392907fddf252ad1be2c89b69c2b068fc378daa952ba7f163c4a11628f55a4df523b3ef908290a45050565b8280546119c190611dda565b90600052602060002090601f0160209004810192826119e35760008555611a29565b82601f106119fc57805160ff1916838001178555611a29565b82800160010185558215611a29579182015b82811115611a29578251825591602001919060010190611a0e565b50611a35929150611a39565b5090565b5b80821115611a355760008155600101611a3a565b6001600160e01b03198116811461109c57600080fd5b600060208284031215611a7657600080fd5b813561102a81611a4e565b60005b83811015611a9c578181015183820152602001611a84565b83811115610f505750506000910152565b60008151808452611ac5816020860160208601611a81565b601f01601f19169290920160200192915050565b60208152600061102a6020830184611aad565b600060208284031215611afe57600080fd5b5035919050565b6001600160a01b038116811461109c57600080fd5b60008060408385031215611b2d57600080fd5b8235611b3881611b05565b946020939093013593505050565b600080600060608486031215611b5b57600080fd5b8335611b6681611b05565b92506020840135611b7681611b05565b929592945050506040919091013590565b600060208284031215611b9957600080fd5b813561102a81611b05565b60008060208385031215611bb757600080fd5b823567ffffffffffffffff80821115611bcf57600080fd5b818501915085601f830112611be357600080fd5b813581811115611bf257600080fd5b8660208260051b8501011115611c0757600080fd5b60209290920196919550909350505050565b634e487b7160e01b600052604160045260246000fd5b600067ffffffffffffffff80841115611c4a57611c4a611c19565b604051601f8501601f19908116603f01168101908282118183101715611c7257611c72611c19565b81604052809350858152868686011115611c8b57600080fd5b858560208301376000602087830101525050509392505050565b600060208284031215611cb757600080fd5b813567ffffffffffffffff811115611cce57600080fd5b8201601f81018413611cdf57600080fd5b61129484823560208401611c2f565b60008060408385031215611d0157600080fd5b8235611d0c81611b05565b915060208301358015158114611d2157600080fd5b809150509250929050565b60008060008060808587031215611d4257600080fd5b8435611d4d81611b05565b93506020850135611d5d81611b05565b925060408501359150606085013567ffffffffffffffff811115611d8057600080fd5b8501601f81018713611d9157600080fd5b611da087823560208401611c2f565b91505092959194509250565b60008060408385031215611dbf57600080fd5b8235611dca81611b05565b91506020830135611d2181611b05565b600181811c90821680611dee57607f821691505b602082108103611e0e57634e487b7160e01b600052602260045260246000fd5b50919050565b60208082526031908201527f4552433732313a207472616e736665722063616c6c6572206973206e6f74206f6040820152701ddb995c881b9bdc88185c1c1c9bdd9959607a1b606082015260800190565b6020808252818101527f4f776e61626c653a2063616c6c6572206973206e6f7420746865206f776e6572604082015260600190565b634e487b7160e01b600052601160045260246000fd5b600060018201611ec257611ec2611e9a565b5060010190565b60008351611edb818460208801611a81565b835190830190611eef818360208801611a81565b01949350505050565b600082821015611f0a57611f0a611e9a565b500390565b60008219821115611f2257611f22611e9a565b500190565b60208082526032908201527f4552433732313a207472616e7366657220746f206e6f6e20455243373231526560408201527131b2b4bb32b91034b6b83632b6b2b73a32b960711b606082015260800190565b634e487b7160e01b600052601260045260246000fd5b600082611f9e57611f9e611f79565b500490565b600082611fb257611fb2611f79565b500690565b634e487b7160e01b600052603260045260246000fd5b6001600160a01b038581168252841660208201526040810183905260806060820181905260009061200090830184611aad565b9695505050505050565b60006020828403121561201c57600080fd5b815161102a81611a4e56fea164736f6c634300080d000a",
    "linkReferences": {}
  }
}