{
  "abi": [
    {
      "anonymous": false,
      "inputs": [
        {
          "indexed": true,
          "internalType": "address",
          "name": "previousOwner",
          "type": "address"
        },
        {
          "indexed": true,
          "internalType": "address",
          "name": "newOwner",
          "type": "address"
        }
      ],
      "name": "OwnershipTransferred",
      "type": "event"
    },
    {
      "inputs": [],
      "name": "baseURI",
      "outputs": [
        {
          "internalType": "string",
          "name": "",
          "type": "string"
        }
      ],
      "stateMutability": "view",
      "type": "function"
    },
    {
      "inputs": [],
      "name": "owner",
      "outputs": [
        {
          "internalType": "address",
          "name": "",
          "type": "address"
        }
      ],
      "stateMutability": "view",
      "type": "function"
    },
    {
      "inputs": [],
      "name": "publicMint",
      "outputs": [
        {
          "internalType": "bool",
          "name": "",
          "type": "bool"
        }
      ],
      "stateMutability": "view",
      "type": "function"
    },
    {
      "inputs": [],
      "name": "renounceOwnership",
      "outputs": [],
      "stateMutability": "nonpayable",
      "type": "function"
    },
    {
      "inputs": [
        {
          "internalType": "string",
          "name": "_baseURI",
          "type": "string"
        }
      ],
      "name": "setBaseURI",
      "outputs": [],
      "stateMutability": "nonpayable",
      "type": "function"
    },
    {
      "inputs": [],
      "name": "startPublicMint",
      "outputs": [],
      "stateMutability": "nonpayable",
      "type": "function"
    },
    {
      "inputs": [],
      "name": "startWhitelistMint",
      "outputs": [],
      "stateMutability": "nonpayable",
      "type": "function"
    },
    {
      "inputs": [
        {
          "internalType": "address",
          "name": "newOwner",
          "type": "address"
        }
      ],
      "name": "transferOwnership",
      "outputs": [],
      "stateMutability": "nonpayable",
      "type": "function"
    },
    {
      "inputs": [],
      "name": "whitelistMint",
      "outputs": [
        {
          "internalType": "bool",
          "name": "",
          "type": "bool"
        }
      ],
      "stateMutability": "view",
      "type": "function"
    },
    {
      "inputs": [
        {
          "internalType": "address payable",
          "name": "payee",
          "type": "address"
        }
      ],
      "name": "withdrawPayments",
      "outputs": [],
      "stateMutability": "nonpayable",
      "type": "function"
    }
  ],
  "bytecode": {
    "object": "0x608060405234801561001057600080fd5b5061001a3361001f565b61006f565b600080546001600160a01b038381166001600160a01b0319831681178455604051919092169283917f8be0079c531659141344cd1fd0a4f28419497f9722a3daafe3b4186f6b6457e09190a35050565b6106d38061007e6000396000f3fe608060405234801561001057600080fd5b506004361061009e5760003560e01c806376c64c621161006657806376c64c6214610111578063804f43cd146101195780638da5cb5b1461012d578063b70196d714610148578063f2fde38b1461015057600080fd5b806326092b83146100a357806331b3eb94146100cc57806355f804b3146100e15780636c0360eb146100f4578063715018a614610109575b600080fd5b6000546100b790600160a01b900460ff1681565b60405190151581526020015b60405180910390f35b6100df6100da366004610517565b610163565b005b6100df6100ef366004610551565b6101fb565b6100fc61023c565b6040516100c39190610602565b6100df6102ca565b6100df610300565b6000546100b790600160a81b900460ff1681565b6000546040516001600160a01b0390911681526020016100c3565b6100df61033f565b6100df61015e366004610517565b61037e565b6000546001600160a01b031633146101965760405162461bcd60e51b815260040161018d90610657565b60405180910390fd5b60405147906000906001600160a01b0384169083908381818185875af1925050503d80600081146101e3576040519150601f19603f3d011682016040523d82523d6000602084013e6101e8565b606091505b50509050806101f657600080fd5b505050565b6000546001600160a01b031633146102255760405162461bcd60e51b815260040161018d90610657565b8051610238906001906020840190610469565b5050565b600180546102499061068c565b80601f01602080910402602001604051908101604052809291908181526020018280546102759061068c565b80156102c25780601f10610297576101008083540402835291602001916102c2565b820191906000526020600020905b8154815290600101906020018083116102a557829003601f168201915b505050505081565b6000546001600160a01b031633146102f45760405162461bcd60e51b815260040161018d90610657565b6102fe6000610419565b565b6000546001600160a01b0316331461032a5760405162461bcd60e51b815260040161018d90610657565b6000805460ff60a01b1916600160a01b179055565b6000546001600160a01b031633146103695760405162461bcd60e51b815260040161018d90610657565b6000805460ff60a81b1916600160a81b179055565b6000546001600160a01b031633146103a85760405162461bcd60e51b815260040161018d90610657565b6001600160a01b03811661040d5760405162461bcd60e51b815260206004820152602660248201527f4f776e61626c653a206e6577206f776e657220697320746865207a65726f206160448201526564647265737360d01b606482015260840161018d565b61041681610419565b50565b600080546001600160a01b038381166001600160a01b0319831681178455604051919092169283917f8be0079c531659141344cd1fd0a4f28419497f9722a3daafe3b4186f6b6457e09190a35050565b8280546104759061068c565b90600052602060002090601f01602090048101928261049757600085556104dd565b82601f106104b057805160ff19168380011785556104dd565b828001600101855582156104dd579182015b828111156104dd5782518255916020019190600101906104c2565b506104e99291506104ed565b5090565b5b808211156104e957600081556001016104ee565b6001600160a01b038116811461041657600080fd5b60006020828403121561052957600080fd5b813561053481610502565b9392505050565b634e487b7160e01b600052604160045260246000fd5b60006020828403121561056357600080fd5b813567ffffffffffffffff8082111561057b57600080fd5b818401915084601f83011261058f57600080fd5b8135818111156105a1576105a161053b565b604051601f8201601f19908116603f011681019083821181831017156105c9576105c961053b565b816040528281528760208487010111156105e257600080fd5b826020860160208301376000928101602001929092525095945050505050565b600060208083528351808285015260005b8181101561062f57858101830151858201604001528201610613565b81811115610641576000604083870101525b50601f01601f1916929092016040019392505050565b6020808252818101527f4f776e61626c653a2063616c6c6572206973206e6f7420746865206f776e6572604082015260600190565b600181811c908216806106a057607f821691505b6020821081036106c057634e487b7160e01b600052602260045260246000fd5b5091905056fea164736f6c634300080d000a",
    "linkReferences": {}
  }
}